:100000000C942A000C9434000C9434000C943400AA
:100010000C9434000C9434000C9434000C94340090
:100020000C9434000C9434000C9434000C94340080
:100030000C9434000C9434000C9434000C94340070
:100040000C9434000C9434000C9434000C94340060
:100050000C94340011241FBECFE5D4E0DEBFCDBF29
:100060000E9448000C9466000C94000087B3806BDB
:1000700087BBBE9888B38F7088BB8DB180658DB902
:1000800008958FB9779BFECFC49AC4988FB1089515
:10009000CF93DF930E943600889A8FEF82BB80E077
:1000A0000E944100C0E0D0E08C2F0E9441008FE709
:1000B00098E3A1E081509040A040E1F700C000002B
:1000C0002196CF3FD10509F06CF7EECFF894FFCF22
:00000001FF
